:020000040800F2
:10000000000003208D120008010C0008030C0008FA
:10001000050C0008070C0008090C0008000000008F
:10002000000000000000000000000000013B00088C
:100030000B0C000800000000A13B0008053C000874
:10004000DD120008DD120008DD120008DD120008D4
:10005000DD120008DD120008DD120008DD120008C4
:10006000DD120008DD120008DD1200080D0C00088A
:100070001D0C0008DD1200082D0C00083D0C0008C6
:10008000DD1200084D0C0008DD120008DD1200082A
:100090005D0C0008DD120008DD120008DD1200080A
:1000A000DD120008DD120008DD120008DD12000874
:1000B000DD120008DD1200086D0C0008DD120008DA
:1000C000DD120008DD120008DD120008DD12000854
:1000D000DD120008DD120008DD1200087D0C0008AA
:1000E000DD120008DD120008DD120008DD12000834
:1000F000DD120008DD120008DD120008DD12000824
:10010000DD120008DD120008DD120008DD12000813
:10011000DD120008DD120008DD120008DD12000803
:10012000DD1200088D0C0008DD120008DD12000849
:10013000DD120008DD120008DD120008DD120008E3
:100140009D0C0008DD120008DD120008DD12000819
:10015000DD120008AD0C0008DD120008BD0C00081F
:10016000DD120008DD120008DD120008DD120008B3
:10017000DD120008DD120008DD120008000000009A
:10018000DD120008DD120008CD0C0008DD0C0008AF
:10019000DD120008DD120008DD120008DD12000883
:0C01A0000000000000000000DD1200085C
:1001B00010B5054C237833B9044B13B10448AFF3A1
:1001C00000800123237010BD5408002000000000AF
:1001D0006C5F000808B5034B1BB103490348AFF33C
:1001E000008008BD00000000580800206C5F000877
:1001F00053B94AB9002908BF00281CBF4FF0FF318E
:100200004FF0FF3000F074B9ADF1080C6DE904CE89
:1002100000F006F8DDF804E0DDE9022304B07047E1
:100220002DE9F047089D04468E46002B4DD18A42A9
:10023000944669D9B2FA82F252B101FA02F3C2F1DC
:10024000200120FA01F10CFA02FC41EA030E94406D
:100250004FEA1C48210CBEFBF8F61FFA8CF708FB8E
:1002600016E341EA034306FB07F199420AD91CEB66
:10027000030306F1FF3080F01F81994240F21C8198
:10028000023E63445B1AA4B2B3FBF8F008FB1033E0
:1002900044EA034400FB07F7A7420AD91CEB040415
:1002A00000F1FF3380F00A81A74240F207816444E5
:1002B000023840EA0640E41B00261DB1D44000236A
:1002C000C5E900433146BDE8F0878B4209D9002DCE
:1002D00000F0EF800026C5E9000130463146BDE858
:1002E000F087B3FA83F6002E4AD18B4202D38242C2
:1002F00000F2F980841A61EB030301209E46002D71
:10030000E0D0C5E9004EDDE702B9FFDEB2FA82F2C5
:10031000002A40F09280A1EB0C014FEA1C471FFA23
:100320008CFE0126200CB1FBF7F307FB131140EA0A
:1003300001410EFB03F0884208D91CEB010103F1D7
:10034000FF3802D2884200F2CB804346091AA4B299
:10035000B1FBF7F007FB101144EA01440EFB00FE6D
:10036000A64508D91CEB040400F1FF3102D2A645D2
:1003700000F2BB800846A4EB0E0440EA03409CE771
:10038000C6F12007B34022FA07FC4CEA030C20FA1E
:1003900007F401FA06F31C43F9404FEA1C4900FA3E
:1003A00006F3B1FBF9F8200C1FFA8CFE09FB1811BB
:1003B00040EA014108FB0EF0884202FA06F20BD92E
:1003C0001CEB010108F1FF3A80F08880884240F27E
:1003D0008580A8F102086144091AA4B2B1FBF9F0C2
:1003E00009FB101144EA014100FB0EFE8E4508D9BD
:1003F0001CEB010100F1FF346CD28E456AD9023842
:10040000614440EA0840A0FB0294A1EB0E01A14226
:10041000C846A64656D353D05DB1B3EB080261EB94
:100420000E0101FA07F722FA06F3F1401F43C5E96E
:10043000007100263146BDE8F087C2F12003D840A4
:100440000CFA02FC21FA03F3914001434FEA1C47E6
:100450001FFA8CFEB3FBF7F007FB10360B0C43EAD8
:10046000064300FB0EF69E4204FA02F408D91CEB88
:10047000030300F1FF382FD29E422DD90238634486
:100480009B1B89B2B3FBF7F607FB163341EA034126
:1004900006FB0EF38B4208D91CEB010106F1FF3875
:1004A00016D28B4214D9023E6144C91A46EA00466C
:1004B00038E72E46284605E70646E3E61846F8E6FE
:1004C0004B45A9D2B9EB020864EB0C0E0138A3E747
:1004D0004646EAE7204694E74046D1E7D0467BE728
:1004E000023B614432E7304609E76444023842E7A0
:1004F000704700BF08B50D480D4B036003234360F0
:1005000000238360C3604FF4102202614FF4001295
:100510004261037643768376C3760377437700F0B0
:100520000BFF00B908BD00F085FAFBE77408002056
:100530000064004008B50D480D4B03600323436081
:1005400000238360C3604FF4102202614FF4001255
:100550004261037643768376C3760377437700F070
:10056000EBFE00B908BD00F065FAFBE79C0800202F
:100570000068004010B58AB00023059306930793E6
:100580000893099303683E4A934204D03D4A93423C
:1005900034D00AB010BD3C4A136801331360012BFC
:1005A0001FD000240194394B1A6B42F008021A63E1
:1005B0001B6B03F008030193019B032305930222A5
:1005C000069208930923099305A9314801F018FD03
:1005D00022460521142001F0B1FA142001F0E6FAB8
:1005E000D7E700230093294B1A6C42F000721A647B
:1005F0001B6C03F000730093009BD2E7002302936F
:10060000224B1A6C42F080621A641B6C03F0806308
:100610000293029B1C4A136801331360012B21D003
:1006200000240494194B1A6B42F002021A631B6BEC
:1006300003F002030493049B4FF4405305930223F9
:100640000693032308930923099305A9114801F090
:10065000D7FC22460521402001F070FA402001F02D
:10066000A5FA96E700230393084B1A6C42F0007238
:100670001A641B6C03F000730393039BD0E700BF65
:10068000006400400068004070080020003802400C
:10069000000C02400004024010B582B00024009417
:1006A000264B1A6B42F400121A631A6B02F4001202
:1006B0000092009A01941A6B42F480021A631B6B39
:1006C00003F480030193019B224605210B2001F0D6
:1006D00035FA0B2001F06AFA224605210C2001F0C0
:1006E0002DFA0C2001F062FA224605210E2001F0BD
:1006F00025FA0E2001F05AFA224605210F2001F0BA
:100700001DFA0F2001F052FA22460521112001F0B6
:1007100015FA112001F04AFA22460521392001F08C
:100720000DFA392001F042FA22460521452001F058
:1007300005FA452001F03AFA02B010BD0038024037
:1007400008B504F0D7F8074B1B6800225A6304F081
:1007500051F804F059F804F061F80A2003F02EF97A
:10076000F1E700BF6C0B002000B52DED028BA3B0AC
:100770009FED1C8AB0EE482ADFED1B1AB0EE481A36
:10078000DFED1A0AB0EE080A02A804F021FAB0EE72
:10079000482AF0EE481A9FED161AF0EE480A9FED2F
:1007A000150A12A804F014FA134BD3ED1F0A9FED9B
:1007B000131AF8EEE00A9FED120A12A804F01FFACD
:1007C000BDEEC00A00230193009310EE102A12B26E
:1007D00040F2FF110B4804F059F9012003F0EEF844
:1007E000E2E700BF0000000000401C468FC2F53C5D
:1007F000666686408FC2753DC04C002000007A447A
:10080000002000469C080020034B0360034B0B6054
:1008100080231360704700BFCC0A0020CC08002062
:1008200030B58FB0154C0DF11C0CA646BEE80F007C
:10083000ACE80F009EE807008CE80700002107A83D
:1008400003F087F80E4D2860EE4604F11C0CBCE85E
:100850000F00AEE80F009CE807008EE807000021BB
:10086000684603F076F8074C2060286803F0C2FD64
:10087000206803F0BFFD0FB030BD00BF845F0008EB
:10088000C4080020C80800202DE9F0478EB00024DD
:1008900009940A940B940C940D940194584B1A6B80
:1008A00042F010021A631A6B02F010020192019AD0
:1008B00002941A6B42F040021A631A6B02F0400273
:1008C0000292029A03941A6B42F001021A631A6BA5
:1008D00002F001020392039A04941A6B42F0080298
:1008E0001A631A6B02F008020492049A05941A6BB8
:1008F00042F080021A631A6B02F080020592059A98
:1009000006941A6B42F004021A631A6B02F0040296
:100910000692069A07941A6B42F002021A631A6B47
:1009200002F002020792079A08941A6B42F0200222
:100930001A631B6B03F020030893089BDFF8D0A019
:1009400022463C21504601F059FCDFF8C8900122B4
:100950004FF4FF71484601F051FC2A4E22464021D7
:10096000304601F04BFCDFF8B08022464FF40061C6
:10097000404601F043FC244F22464FF48041384664
:1009800001F03CFC3C23099301250A950B940C943F
:1009900009A9504601F034FB4FF4FF7309930A95FF
:1009A0000B940C9409A9484601F02AFB40230993B3
:1009B0000A950B940C9409A9304601F021FB0423FD
:1009C00009930A9402260B9609A9104801F018FB16
:1009D0004FF4006309930A950B940C9609A94046BD
:1009E00001F00EFB4FF4804309930A950B940C968B
:1009F00009A9384601F004FB0EB0BDE8F08700BF3E
:100A00000038024000080240001402400004024086
:100A1000001C0240001802400010024008B50268A5
:100A2000034B9A4200D008BD00F074FCFBE700BF06
:100A30000008004072B6FEE700B595B030220021F4
:100A400008A804F001FA0023039304930593069386
:100A500007930193204A116C41F080511164126C8C
:100A600002F080520192019A02931C4B1A6842F4E0
:100A700040421A601B6803F440430293029B012327
:100A800008934FF48033099302230E934FF48002AE
:100A90000F9206221092A82211921293042313930C
:100AA00008A801F0BBFB98B90F230393022304931A
:100AB000002305934FF4A05306934FF480530793FC
:100AC000052103A801F0F8FD20B915B05DF804FB7D
:100AD000FFF7B0FFFFF7AEFF0038024000700040A4
:100AE00008B500F0FDFBFFF7A7FFFFF7CDFEFFF70E
:100AF000D3FDFFF7FFFCFFF71DFD00F0E7F900F065
:100B0000FFF900F0C9F900F0ADF900F061F9FFF765
:100B100087FE02F019FFFEE700B583B000220092C5
:100B20000D4B596C41F480415964596C01F480417A
:100B3000009100990192196C41F0805119641B6C6D
:100B400003F080530193019B0F216FF0010000F02F
:100B5000F5FF03B05DF804FB0038024030B589B002
:100B6000044600230193214B1A6C42F004021A64DC
:100B70001B6C03F004030193019B02A903A801F07D
:100B800071FE069BCBB901F04DFE03461848A0FB51
:100B900003239B0C013B1748174A026040F2E732DF
:100BA000C2604360002303618360836102F0A6F8A2
:100BB000054630B1284609B030BD01F033FE430090
:100BC000E4E70C4801F030FF05460028F2D11E2072
:100BD00000F0ECFF0F2C01D90125EBE700222146A4
:100BE0001E2000F0ABFF054B1C60E3E7003802401D
:100BF00083DE1B43200B002000080040080000207B
:100C0000FEE7FEE7FEE7FEE7FEE7704708B50248AD
:100C100001F008F908BD00BFD40C002008B5024857
:100C200001F000F908BD00BF140C002008B502480F
:100C300001F0F8F808BD00BFB40B002008B5024869
:100C400001F0F0F808BD00BF340D002008B50248DF
:100C500001F0E8F808BD00BF740C002008B5024898
:100C600000F034FE08BD00BF7408002008B502483B
:100C700001F023FF08BD00BF200B002008B502488B
:100C800002F01CFD08BD00BF540E002008B502484C
:100C900001F0C8F808BD00BF940D002008B5024857
:100CA00000F014FE08BD00BF9C08002008B50248F3
:100CB00001F0B8F808BD00BFF40D002008B50248E7
:100CC00002F0FCFC08BD00BF980E002008B50248E9
:100CD00002F0F4FC08BD00BFDC0E002008B502489D
:100CE00002F0ECFC08BD00BF200F002010B5034649
:100CF0000C4A0D490D48006840B10C480068034497
:100D0000521A934206D8094A136010BD0748084C8E
:100D10000460F2E704F06EF80C2303604FF0FF303C
:100D2000F3E700BF0000032000040000680B002070
:100D3000F04D0020034AD2F8883043F47003C2F823
:100D40008830704700ED00E00268094B9A4200D0FD
:100D5000704782B000230193064B1A6C42F04002A8
:100D60001A641B6C03F040030193019B02B07047AF
:100D7000001800400038024000B587B000230193FE
:100D8000029303930493059302680E4B9A4202D098
:100D900007B05DF804FB002300930B4B1A6B42F085
:100DA00080021A631B6B03F080030093009B4023B7
:100DB0000193022302930923059301A9034801F03B
:100DC0001FF9E5E70018004000380240001C02400F
:100DD00000B58DB00023089309930A930B930193F8
:100DE0000293039304930593069307931B481C4AAD
:100DF000026003224260836044F29F12C26003617A
:100E00008023836101F07AFFE0B94FF480530893A7
:100E100008A9124802F07DF8B8B9104801F09AFF0D
:100E2000B0B960230193002202920392059201A9B6
:100E30000A4801F0F3FF70B90848FFF79DFF0DB0B5
:100E40005DF804FBFFF7F6FDDFE7FFF7F3FDE4E7EE
:100E5000FFF7F0FDE5E7FFF7EDFDEDE76C0B002098
:100E60000018004008B50A480A4B03604FF4E1330C
:100E7000436000238360C36003610C22426183618D
:100E8000C36102F083FA00B908BDFFF7D3FDFBE7A9
:100E9000DC0E00200078004008B50A480A4B0360C9
:100EA0004FF4E133436000238360C36003610C228D
:100EB00042618361C36102F069FA00B908BDFFF7BE
:100EC000B9FDFBE7200F0020007C004008B50A4870
:100ED0000A4B03604FF4E133436000238360C36037
:100EE00003610C2242618361C36102F04FFA00B9D1
:100EF00008BDFFF79FFDFBE7540E002000480040AF
:100F000008B50A480A4B03604FF4E13343600023FD
:100F10008360C36003610C2242618361C36102F09C
:100F200035FA00B908BDFFF785FDFBE7980E0020F4
:100F30000014014030B58FB00446002309930A9392
:100F40000B930C930D930368894A93420CD0894A02
:100F5000934269D0884A934200F0C480874A934202
:100F600000F028810FB030BD00250195844B1A6C2C
:100F700042F080421A641A6C02F080420192019A97
:100F800002951A6B42F010021A631B6B03F01003F8
:100F90000293029B4FF4C073099302230A93032325
:100FA0000C9308230D9309A9764801F029F8764897
:100FB000764B03604FF0206343608560C5604FF45B
:100FC0008063036145618561C5610562456200F02A
:100FD00065FE18BB6C4BA3639C636D486D4B03604F
:100FE0004FF020634360402383600023C3604FF4CD
:100FF0008062026143618361C3610362436200F006
:101000004DFE70B9624B63639C6300220521522040
:1010100000F094FD522000F0C9FDA3E7FFF70AFDA0
:10102000D8E7FFF707FDEDE700250395544B1A6C51
:1010300042F000421A641A6C02F000420392039AD2
:1010400004951A6B42F010021A631B6B03F0100335
:101050000493049B0323099302220A920C9308230E
:101060000D9309A9474800F0CBFF4B484B4B036059
:101070004FF02063436040238360C5604FF480637A
:10108000036145618561C5610562456200F006FE48
:1010900010BB414B63639C634148424B03604FF07C
:1010A0002063436000238360C3604FF48062026169
:1010B00043618361C3610362436200F0EFFD70B975
:1010C000374BA3639C6300220521532000F036FDBB
:1010D000532000F06BFD45E7FFF7ACFCD9E7FFF7C5
:1010E000A9FCEDE700250595254B1A6C42F48022FA
:1010F0001A641A6C02F480220592059A06951A6BFE
:1011000042F008021A631B6B03F008030693069B68
:101110004FF44073099302230A9303230C9307238C
:101120000D9309A9204800F06BFF2048204B036075
:101130004FF06063436040238360C5604FF4806379
:10114000036145618561C5610562456200F0A6FDE8
:1011500058B9164B63639C6300220521272000F0D9
:10116000EDFC272000F022FDFCE6FFF763FCF0E732
:1011700000780040007C004000480040001401401E
:101180000038024000100240B40B002058600240BA
:10119000140C002028600240D40C00201060024093
:1011A000740C0020A0600240000C0240340D0020AE
:1011B00070600240002507952E4B5A6C42F02002C9
:1011C0005A645A6C02F020020792079A08951A6B2B
:1011D00042F040021A631B6B03F040030893089B24
:1011E0004FF48443099302230A9303230C930823A7
:1011F0000D9309A9204800F003FF2048204B03600D
:101200004FF0206343608560C5604FF480630361E5
:1012100045618561C5610562456200F03FFD18BB0F
:10122000164BA3639C631748174B03604FF0206372
:101230004360402383600023C3604FF480620261F7
:1012400043618361C3610362436200F027FD70B9AB
:101250000C4B63639C6300220521472000F06EFC69
:10126000472000F0A3FC7DE6FFF7E4FBD8E7FFF79B
:10127000E1FBEDE70038024000180240940D002029
:1012800028640240F40D0020A0640240DFF834D04E
:101290000D480E490E4A002302E0D458C4500433CE
:1012A000C4188C42F9D30B4A0B4C002301E01360A5
:1012B0000432A242FBD3FFF73DFD03F0A1FDFFF78F
:1012C0000FFC70470000032000000020540800209D
:1012D0001460000854080020EC4D0020FEE70000D8
:1012E00008B50B4B1A6842F400721A601A6842F48F
:1012F00080621A601A6842F480721A60032000F05B
:101300000BFC0F20FFF72AFCFFF706FC002008BDAE
:10131000003C0240034A1168034B1B780B441360E6
:10132000704700BF640F002004000020014B1868C4
:10133000704700BF640F0020002800F0A18038B57E
:10134000044690F82030D3B12268136843F00103BB
:101350001360FFF7EBFF054623685A6812F0010F90
:1013600010D1FFF7E3FF401B0A28F5D9636A43F465
:1013700000336362052384F82030012038BDFFF775
:10138000F9F8E1E71A6822F002021A60FFF7CEFFCF
:10139000054623685A6812F0020F0DD0FFF7C6FF0A
:1013A000401B0A28F5D9636A43F4003363620523BE
:1013B00084F820300120E1E7227E012A3DD01A681E
:1013C00022F080021A60637E012B3BD022681368F2
:1013D00023F040031360A37E012B39D022681368E9
:1013E00023F020031360E37E012B37D022681368BB
:1013F00043F010031360237F012B35D0226813685C
:1014000023F008031360637F012B33D02268136835
:1014100023F004031360A368E268134322691343B3
:10142000626913436268013A21681343CB6100206B
:101430006062012384F82030A0E71A6842F080023D
:101440001A60C0E72268136843F040031360C2E7E4
:101450002268136843F020031360C4E7226813680E
:1014600023F010031360C6E72268136843F00803F3
:101470001360C8E72268136843F004031360CAE7E7
:101480000120704790F82030013BDBB2012B05D9D9
:10149000436A43F4802343620120704730B5464BD2
:1014A000D3F8002242F00102C3F80022D3F8002250
:1014B00022F47C52C3F80022D3F80022486A42EAA0
:1014C0000022C3F800224A6902F01F02012000FA3C
:1014D00002F2D3F81C026FEA020C20EA0200C3F801
:1014E0001C02CB69C3B9344BD3F80C020CEA0000E0
:1014F000C3F80C028C884869CD6844EA054448303A
:1015000043F830408C68088840EA04404C6904F194
:10151000480E03EBCE035860CB69012B1ED08B69BC
:10152000002B33D12448D0F804320CEA0303C0F86E
:1015300004320B698BBB2048D0F814320CEA030349
:10154000C0F814320B6A012B2ED01B4AD2F800329D
:1015500023F00103C2F80032002030BD164BD3F84F
:101560000C021043C3F80C028C8848690D6844EAE9
:101570000544483043F8304088894C698D6840EA1A
:101580000540483403EBC4035860C8E70A48D0F864
:1015900004321343C0F80432CBE70748D0F81432C2
:1015A0001343C0F81432CDE70349D1F81C321A4373
:1015B000C1F81C22C9E700BF0064004070B50446B2
:1015C00090F82050EDB2012D06D0436A43F4002379
:1015D00043620125284670BD022380F8203002684E
:1015E000136823F001031360FFF7A0FE064623688B
:1015F0005B6813F0010F0CD0FFF798FE831B0A2BDA
:10160000F5D9636A43F400336362052384F820301C
:10161000E0E700256562DDE730B590F820C004689A
:10162000A4680CF1FF3C5FFA8CFCBCF1010F6BD895
:1016300014F0E05F62D0C4F3016CBCF1020F05D975
:10164000436A43F400034362012062E0012404FA88
:101650000CF41C608B68002B3DD10D68CB680468CE
:1016600043EA45550CF118031B01E55003680C696A
:101670000CF1180E03EB0E135C600B7D012B35D0C3
:10168000D17993791B0443EA0163517943EA012339
:1016900014790168234301EB0C11C1F88C31D17826
:1016A00093781B0443EA0163517843EA01231178DC
:1016B00002680B4302EB0C12C2F8883102680CF18D
:1016C000180C4FEA0C1C52F80C3043F0010342F89E
:1016D0000C3000201DE04C6843EAC403CC6823436F
:1016E0000CF11804240105682B51BFE7036803EBD4
:1016F0000E13596841F480715960C1E7436A43F49D
:1017000000134362012004E0436A43F480234362F0
:10171000012030BD90F82030013BDBB2012B01D914
:10172000002070470368986810F0806000D00120A6
:101730009A6812F0006F00D001309B6813F0805F50
:10174000EFD00130704790F820C00CF1FF3C5FFAF9
:101750008CFCBCF1010F00F2958030B451B90468E3
:10176000E46814F0030F10D1436A43F4001343629A
:10177000012077E00468246914F0030F05D1436A5F
:1017800043F40013436201206CE001F11B042401C7
:1017900005682C5904F004049460002C64D101F114
:1017A0001B04240105682C59640D1460046801F1C0
:1017B0001B0C4FEA0C1C54F80C4004F00204D460DB
:1017C00004686444646804F00F04146104686444A9
:1017D0006468C4F307249461046864446468240C56
:1017E0005461026802EB0112D2F8B8211A70026843
:1017F00002EB0112D2F8B821C2F307225A70026834
:1018000002EB0112D2F8B821C2F307429A700268C3
:1018100002EB0112D2F8B821120EDA70026802EB64
:101820000112D2F8BC211A71026802EB0112D2F83F
:10183000BC21C2F307225A71026802EB0112D2F8EE
:10184000BC21C2F307429A71026802EB0112D2F87E
:10185000BC21120EDA7179B90268D36843F0200313
:10186000D360002030BC704701F11B0424010568DF
:101870002C59E408546099E70268136943F0200387
:101880001361EEE7436A43F480234362012070470B
:1018900090F82030013BDBB2012B05D9436A43F4B9
:1018A00080234362012070470268536919435161E4
:1018B0000020704770477047704770477047704707
:1018C0007047704770477047704770472DE9F84F71
:1018D000054603685C69D3F804809F68D3F80CB0B0
:1018E000D3F810A0D3F8189014F001063BD017F0ED
:1018F000010616D001229A6017F0020F08D117F0E6
:10190000040F0CD117F0080606D04FF4805608E0FB
:10191000FFF7D0FF002604E0FFF7CFFF01E04FF410
:10192000006617F4807F0DD02B684FF480729A60A8
:1019300017F4007F40F0868017F4806F00F08680F7
:1019400046F4005617F4803F0DD02B684FF48032D8
:101950009A6017F4003F40F0838017F4802F00F066
:10196000838046F4004614F0080F07D01BF0100FD8
:1019700004D046F400762B681022DA6014F0040FCD
:1019800002D01BF0080F79D114F0020F04D02B689D
:10199000DB6813F0030F78D114F0400F07D01AF072
:1019A000100F04D046F480662B6810221A6114F0E0
:1019B000200F02D01AF0080F6BD114F0100F04D0D2
:1019C0002B681B6913F0030F6AD114F4003F02D097
:1019D00018F0100F68D114F4803F02D018F0080FEF
:1019E00069D114F4004F7AD018F0040F74D014F4B5
:1019F000807F04D019F0010F01D046F0010614F4E5
:101A0000007F04D019F0020F01D046F0020614F452
:101A1000806F04D019F0040F01D046F0040614F4CE
:101A2000006F59D019F0700956D0B9F1400F65D048
:101A300058D8B9F1200F5ED0B9F1300F42D146F03D
:101A4000200644E02846FFF736FF7BE717F4006FD7
:101A500002D046F4804675E72846FFF72FFF71E76E
:101A60002846FFF729FF7EE717F4002F02D046F43F
:101A7000803678E72846FFF722FF74E72B680822B4
:101A8000DA602846FFF71CFF7EE7284603F072F86D
:101A900082E72B6808221A612846FFF713FF8CE7BC
:101AA0002846FFF70EFF90E72B6810225A60284661
:101AB000FFF709FF8FE72B6808225A602846FFF7D7
:101AC00003FF8EE7B9F1100F01D146F008062A682E
:101AD000936923F0700393612B6804225A609EB9C6
:101AE000BDE8F88FB9F1500F0BD0B9F1600FEED10E
:101AF00046F48076EBE746F01006E8E746F040064D
:101B0000E5E746F08006E2E76B6A1E436E62284610
:101B1000FFF7DBFEE4E70000074AD36823F4E06345
:101B20001B041B0C000200F4E060034343F0BF639E
:101B300043F40033D360704700ED00E000B5194B6B
:101B4000DB68C3F30223C3F1070CBCF1040F28BF09
:101B50004FF0040C03F1040EBEF1060F18D9033B3D
:101B60004FF0FF3E0EFA0CFC21EA0C0199400EFAF0
:101B700003F322EA0303194300280BDB0901C9B26E
:101B800000F1604000F5614080F800135DF804FB4F
:101B90000023E5E700F00F000901C9B2024B195418
:101BA000F4E700BF00ED00E014ED00E0002807DBE3
:101BB00000F01F02400901239340024A42F82030FE
:101BC000704700BF00E100E010B40368D9B21039DB
:101BD0000C4AA2FB014212090B4CA25CC2655F29B0
:101BE00009D923F47F7323F0030304338365806DE5
:101BF0005DF8044B704723F47F7323F00303836580
:101C0000F5E700BFABAAAAAAEC5F0008836A826965
:101C100092B9012B0AD0022B02D00BB100207047E1
:101C2000C36A13F0807F28D100207047C36AB3F1E4
:101C3000C07F24D000207047B2F5005F09D0022B8E
:101C400025D9032B25D1C36A13F0807F23D100202F
:101C50007047032B03D8DFE803F01404140A0020B4
:101C60007047C36A13F0807F0DD100207047C36AAC
:101C7000B3F1C07F09D000207047012070470120D8
:101C800070470120704701207047012070470120F4
:101C900070470020704701207047000070B504466F
:101CA000FFF744FB002C5BD00546022384F8353057
:101CB000002384F834302268136823F00103136092
:101CC00023681A6812F0010F0AD0FFF72FFB431B9D
:101CD000052BF5D920236365032084F8350070BDFA
:101CE0001A68204810406168A2680A43E1680A4304
:101CF00021690A4361690A43A1690A43E1690A4308
:101D0000216A0A430243616A04291ED01A602668C8
:101D1000756925F00705636A1D43042B07D1A36A83
:101D20001D43E36A1BB12046FFF770FF90B9756150
:101D30002046FFF749FFE26D3F2393408360002078
:101D40006065012384F83530C9E7E16A206B0143FF
:101D50000A43DBE740236365012084F83500BEE7D2
:101D60000120BCE73F8010F070B50446866DFFF798
:101D7000DDFA94F83530DBB2022B06D080236365A0
:101D8000002384F83430012070BD054622681368B2
:101D900023F0160313602268536923F08003536114
:101DA000236CE3B12268136823F0080313602268F0
:101DB000136823F00103136023681B6813F0010FFD
:101DC00011D0FFF7B3FA431B052BF5D92023636528
:101DD000032084F83500002384F83430D4E7A36C62
:101DE000002BDFD1E3E7E26D3F239340B360012393
:101DF00084F83530002084F83400C5E790F8353099
:101E0000DBB2022B03D080234365012070470523FA
:101E100080F835300268136823F001031360002056
:101E200070470000F0B583B0044600230193724B65
:101E30001D68724BA3FB0535AD0A876D3E68C26D08
:101E400008239340334210D003681A6812F0040F3D
:101E50000BD01A6822F004021A60C26D0823934066
:101E6000BB60436D43F001034365E26D0123934082
:101E7000334209D02268526912F0800F04D0BB604F
:101E8000636D43F002036365E26D042393403342C4
:101E900009D02268126812F0020F04D0BB60636D93
:101EA00043F004036365E26D10239340334224D072
:101EB0002268126812F0080F1FD0BB6023681A68EE
:101EC00012F4802F0DD01B6813F4002F04D1236C63
:101ED0009BB12046984710E0A36C73B12046984709
:101EE0000BE01A6812F4807F03D11A6822F008020E
:101EF0001A60236C0BB120469847E26D2023934073
:101F0000334255D02268126812F0100F50D0BB60D7
:101F100094F83530DBB2052B0ED023681A6812F422
:101F2000802F33D01B6813F4002F2AD1636C002B51
:101F30003ED0204698473BE02268136823F0160302
:101F400013602268536923F080035361236CA3B1AB
:101F50002268136823F008031360E26D3F23934067
:101F6000BB60012384F83530002384F83430236DBE
:101F7000002B3FD0204698473CE0A36C002BE7D1D4
:101F8000EBE7E36BA3B12046984711E01A6812F41F
:101F9000807F09D11A6822F010021A60012384F8A8
:101FA0003530002384F83430E36B0BB1204698477A
:101FB000636DFBB1636D13F0010F17D0052384F837
:101FC00035302268136823F001031360019B01334D
:101FD0000193AB4204D823681B6813F0010FF5D1BD
:101FE000012384F83530002384F83430E36C0BB1DE
:101FF0002046984703B0F0BD00000020B5814E1B7D
:1020000000230F2B00F2F18070B582B061E085688B
:102010005E000324B44025EA0405CC68B4402C4398
:102020008460456825EA02054C68C4F300129A40B2
:102030002A4342605BE0DC08083450F8246003F077
:10204000070295000F22AA4026EA020E0A69AA405A
:1020500042EA0E0240F824205DE0092200E000225E
:1020600002FA0EF22A430234604D45F82420604AF9
:1020700094686FEA0C0224EA0C054E6816F4801F7F
:1020800001D04CEA04055A4CA560E46802EA040554
:102090004E6816F4001F01D04CEA0405544CE5606C
:1020A000646802EA04054E6816F4003F01D04CEA69
:1020B00004054F4C6560246822404D6815F4803F4C
:1020C00001D04CEA04024A4C226001330F2B00F28B
:1020D0008A8001229A400C6804EA020C32EA040465
:1020E000F3D14C6804F00304013C012C8FD94A68F9
:1020F00002F00302032A09D0C4685D000322AA404B
:1021000024EA02048A68AA402243C2604A6802F0B4
:102110000302022A8FD004684FEA430E032202FA18
:102120000EF224EA02044A6802F0030202FA0EF2F6
:10213000224302604A6812F4403FC6D00022019256
:102140002C4A546C44F480445464526C02F480422F
:102150000192019A9C08A51C244A52F8255003F0CC
:1021600003024FEA820E0F2202FA0EF225EA02055E
:10217000214A90423FF473AF02F58062904222D030
:1021800002F58062904220D002F5806290421ED01B
:1021900002F5806290421CD002F5806290421AD013
:1021A00002F58062904218D002F58062904216D00B
:1021B00002F58062904214D002F5806290423FF4B2
:1021C0004CAF0A224CE701224AE7022248E70322E9
:1021D00046E7042244E7052242E7062240E70722B9
:1021E0003EE708223CE702B070BD7047003801406E
:1021F000003C014000380240000002400AB1816109
:102200007047090481617047436901EA030221EACA
:10221000030141EA0241816170470000002800F09B
:10222000E08170B582B00446036813F0010F3BD023
:102230009F4B9B6803F00C03042B2CD09C4B9B689A
:1022400003F00C03082B21D06368B3F5803F4FD017
:10225000B3F5A02F52D0964B1A6822F480321A6040
:102260001A6822F480221A606368002B50D0FFF7AE
:102270005DF805468E4B1B6813F4003F14D1FFF741
:1022800055F8401B6428F5D90320B1E1884B5B6801
:1022900013F4800FD8D0864B1B6813F4003F03D093
:1022A0006368002B00F09F81236813F0020F54D065
:1022B0007F4B9B6813F00C0F3ED07D4B9B6803F067
:1022C0000C03082B33D0E368002B68D0794B012234
:1022D0001A60FFF72BF80546754B1B6813F0020FC9
:1022E00054D1FFF723F8401B0228F5D903207FE1E2
:1022F0006F4A136843F480331360B5E76C4B1A6878
:1023000042F480221A601A6842F480321A60ABE705
:10231000FFF70CF80546664B1B6813F4003FC3D06B
:10232000FFF704F8401B6428F5D9032060E1604BF7
:102330005B6813F4800FC6D15D4B1B6813F0020F6E
:1023400003D0E368012B40F05081594A136823F011
:10235000F803216943EAC1031360236813F0080FEF
:1023600042D063696BB3534B0122C3F8802EFEF752
:10237000DDFF05464E4B5B6F13F0020F34D1FEF7C5
:10238000D5FF401B0228F5D9032031E1484A1368E4
:1023900023F0F803216943EAC1031360DDE7454BED
:1023A00000221A60FEF7C2FF0546414B1B6813F07E
:1023B000020FD2D0FEF7BAFF401B0228F5D9032046
:1023C00016E13C4B0022C3F8802EFEF7AFFF054616
:1023D000374B5B6F13F0020F06D0FEF7A7FF401BD1
:1023E0000228F5D9032003E1236813F0040F77D006
:1023F0002F4B1B6C13F0805F33D1002301932C4BC8
:102400001A6C42F080521A641B6C03F080530193E3
:10241000019B0125284B1B6813F4807F23D0A36800
:10242000012B34D0052B38D0214B1A6F22F001023A
:102430001A671A6F22F004021A67A368002B3DD0B6
:10244000FEF774FF06461A4B1B6F13F0020F46D1BE
:10245000FEF76CFF801B41F288339842F3D90320CA
:10246000C6E00025D6E7144A136843F4807313606E
:10247000FEF75CFF0646104B1B6813F4807FCED13D
:10248000FEF754FF801B0228F5D90320B0E0084A6C
:10249000136F43F001031367CFE7054B1A6F42F048
:1024A00004021A671A6F42F001021A67C5E700BFFB
:1024B000003802400000474200700040FEF736FF3F
:1024C0000646524B1B6F13F0020F08D0FEF72EFF8B
:1024D000801B41F288339842F3D9032088E0EDB99C
:1024E000A369002B00F08380484A926802F00C0236
:1024F000082A51D0022B17D0454B00221A66FEF74E
:1025000015FF0446414B1B6813F0007F42D0FEF7D5
:102510000DFF001B0228F5D9032069E03B4A136C2C
:1025200023F080531364DBE7394B00221A66FEF771
:10253000FDFE0546354B1B6813F0007F06D0FEF705
:10254000F5FE401B0228F5D9032051E0E369226A19
:102550001343626A43EA8213A26A5208013A43EAC9
:102560000243E26A43EA0263284A5360284B01228D
:102570001A66FEF7DBFE0446244B1B6813F0007F4F
:1025800006D1FEF7D3FE001B0228F5D903202FE069
:1025900000202DE000202BE0012B2BD01B4B5B6893
:1025A00003F48001E269914226D103F03F02216ADF
:1025B0008A4223D1616A47F6C0721A40B2EB811F8A
:1025C0001ED103F44031A26A5208013AB1EB024F26
:1025D00018D103F07063E26AB3EB026F14D10020EC
:1025E00006E001207047012002E0012000E0002009
:1025F00002B070BD0120FBE70120F9E70120F7E7F9
:102600000120F5E70120F3E70120F1E7003802405F
:102610000000474208B5254B9B6803F00C03042BD0
:102620003FD0082B3FD1214B5A6802F03F025B6834
:1026300013F4800F12D01D4B5968C1F388111C4848
:102640000023A1FB0001FDF7D3FD184B5B68C3F32A
:10265000014301335B00B0FBF3F025E0134B5968F5
:10266000C1F3881C4FEA4C11B1EB0C006EEB0E0E5F
:102670004FEA8E1343EA90638101091A63EB0E035C
:10268000DB0043EA5173C90011EB0C0C43F100036A
:10269000990200234FEA8C2041EA9C51FDF7A8FDE6
:1026A000D3E7034800E0034808BD00BF00380240FC
:1026B000001BB7000024F400002800F09B8070B5D8
:1026C0000D4604464F4B1B6803F00F038B4208D2A4
:1026D000CBB24C4A1370136803F00F038B4240F0E7
:1026E0008B80236813F0020F17D013F0040F04D06F
:1026F000454A936843F4E0539360236813F0080F4E
:1027000004D0414A936843F4604393603E4A93681F
:1027100023F0F003A1680B439360236813F0010FCB
:1027200032D06368012B21D09A1E012A25D9364A5E
:10273000126812F0020F61D033498A6822F0030256
:1027400013438B60FEF7F2FD06462F4B9B6803F0A8
:102750000C036268B3EB820F16D0FEF7E7FD801B17
:1027600041F288339842F0D9032042E0264A1268A9
:1027700012F4003FE0D101203BE0234A126812F03E
:10278000007FD9D1012034E01E4B1B6803F00F03FA
:10279000AB4207D9EAB21B4B1A701B6803F00F0358
:1027A000AB422DD1236813F0040F06D0164A93686C
:1027B00023F4E053E1680B439360236813F0080FA0
:1027C00007D0114A936823F46043216943EAC103A7
:1027D0009360FFF71FFF0C4B9B68C3F303130B4A77
:1027E000D35CD8400A4B18600A4B1868FEF7B6F95C
:1027F000002070BD012070470120FAE70120F8E7B2
:102800000120F6E7003C024000380240D45F000897
:102810000000002008000020014B1868704700BF2E
:102820000000002008B5FFF7F7FF044B9B68C3F3D7
:102830008223034AD35CD84008BD00BF0038024061
:10284000E45F000808B5FFF7E7FF044B9B68C3F39C
:102850004233034AD35CD84008BD00BF0038024071
:10286000E45F00080F2303600B4B9A6802F0030239
:1028700042609A6802F0F00282609A6802F4E052C4
:10288000C2609B68DB0803F4E0530361034B1B68E1
:1028900003F00F030B60704700380240003C024019
:1028A00030B4036A23F001030362036A4268846957
:1028B00024F073040D682C4323F0020C8B6843EA68
:1028C0000C03104DA84203D005F58065A84205D140
:1028D00023F00803CD682B4323F00403094DA842DD
:1028E00003D005F58065A84205D122F440724D69F8
:1028F0002A438D692A43426084614A6842630362C5
:1029000030BC70470000014030B4036A23F4807388
:102910000362036A4268C46924F0730C0C6844EAD9
:102920000C0523F400738C6843EA0423114CA04285
:1029300003D004F58064A04206D123F40063CC6880
:1029400043EA042323F480630A4CA04203D004F535
:102950008064A04207D122F440524C6942EA04123A
:102960008C6942EA04124260C5614A68C26303622C
:1029700030BC70470000014030B4036A23F4805338
:102980000362036A4468C26922F4E6420D6842EABF
:10299000052223F400538D6843EA0533094DA8420C
:1029A00003D005F58065A84204D124F480444D6924
:1029B00044EA85144460C2614A680264036230BC20
:1029C000704700BF0000014010B4036A046A24F09D
:1029D00001040462846924F0F00C4CEA021223F032
:1029E0000A030B43826103625DF8044B704710B425
:1029F000046A24F0100404628469036A24F4704CAD
:102A00004CEA023223F0A00343EA0113826103621D
:102A10005DF8044B7047836823F070030B4343F069
:102A2000070383607047000090F83D30DBB2012B54
:102A300037D1022380F83D300268D36843F00103A8
:102A4000D3600368194A934220D0B3F1804F1DD060
:102A5000A2F57C42934219D002F58062934215D0D0
:102A600002F58062934211D002F5784293420DD074
:102A700002F57052934209D0A2F59432934205D0E8
:102A80001A6842F001021A60002070479A6802F04A
:102A90000702062A07D01A6842F001021A600020D5
:102AA0007047012070470020704700BF00000140C0
:102AB0007047704770477047704710B50446036809
:102AC0001A6912F0020F11D0DA6812F0020F0DD05D
:102AD0006FF002021A610123037703689B6913F008
:102AE000030F70D0FFF7E6FF0023237723681A69EE
:102AF00012F0040F12D0DA6812F0040F0ED06FF04B
:102B000004021A610223237723689B6913F4407F30
:102B10005FD02046FFF7CEFF0023237723681A6992
:102B200012F0080F12D0DA6812F0080F0ED06FF012
:102B300008021A61042323772368DB6913F0030F6B
:102B40004ED02046FFF7B6FF0023237723681A698B
:102B500012F0100F12D0DA6812F0100F0ED06FF0D2
:102B600010021A61082323772368DB6913F4407F7E
:102B70003DD02046FFF79EFF0023237723681A6984
:102B800012F0010F03D0DA6812F0010F36D123687A
:102B90001A6912F0800F03D0DA6812F0800F34D176
:102BA00023681A6912F0400F03D0DA6812F0400F60
:102BB00032D123681A6912F0200F03D0DA6812F0BC
:102BC000200F30D110BDFFF774FF2046FFF773FFD1
:102BD0008AE72046FFF76DFF2046FFF76CFF9BE773
:102BE0002046FFF766FF2046FFF765FFACE720466B
:102BF000FFF75FFF2046FFF75EFFBDE76FF00102C2
:102C00001A612046FDF70AFFC1E76FF080021A61E2
:102C1000204600F090FAC3E76FF040021A612046A8
:102C2000FFF74AFFC5E76FF020021A61204600F067
:102C300081FAC7E70368304A904212D0B0F1804F62
:102C40000FD0A2F57C4290420BD002F580629042F8
:102C500007D002F58062904203D002F5784290429C
:102C600003D123F070034A681343234A90422AD0C9
:102C7000B0F1804F27D0A2F57C42904223D002F5DC
:102C8000806290421FD002F5806290421BD002F514
:102C90007842904217D002F57052904213D002F55C
:102CA000806290420FD002F5806290420BD0A2F574
:102CB0009832904207D002F58062904203D002F52C
:102CC0008062904203D123F44073CA68134323F017
:102CD00080034A69134303608B68C3620B68836295
:102CE000054B984203D003F58063984201D10B69EC
:102CF00003630123436170470000014040B310B5F6
:102D0000044690F83D30F3B1022384F83D3021466B
:102D100051F8040BFFF78EFF012384F8463084F846
:102D20003E3084F83F3084F8403084F8413084F8F5
:102D3000423084F8433084F8443084F8453084F8D5
:102D40003D30002010BD80F83C30FDF7FDFFDBE793
:102D50000120704740B310B5044690F83D30F3B100
:102D6000022384F83D30214651F8040BFFF762FF3F
:102D7000012384F8463084F83E3084F83F3084F8EC
:102D8000403084F8413084F8423084F8433084F88D
:102D9000443084F8453084F83D30002010BD80F880
:102DA0003C30FFF785FEDBE70120704730B4036A53
:102DB00023F010030362036A4468826922F4E64246
:102DC0000D6842EA052223F020038D6843EA0513CB
:102DD000114DA84203D005F58065A84206D123F025
:102DE0008003CD6843EA051323F040030A4DA8424F
:102DF00003D005F58065A84207D124F440644D69ED
:102E000044EA85048D6944EA8504446082614A6825
:102E10008263036230BC70470000014038B590F80F
:102E20003C30012B66D004460D46012380F83C302F
:102E30000C2A5AD8DFE802F0075959591B59595939
:102E40003059595944000068FFF72AFD22689369F8
:102E500043F0080393612268936923F004039361AC
:102E60002268936929690B43936100203EE0006862
:102E7000FFF79CFF2268936943F400639361226823
:102E8000936923F48063936122689369296943EA13
:102E900001239361002029E00068FFF735FD2268D7
:102EA000D36943F00803D3612268D36923F0040394
:102EB000D3612268D36929690B43D361002015E0EF
:102EC0000068FFF759FD2268D36943F40063D361BA
:102ED0002268D36923F48063D3612268D3692969A6
:102EE00043EA0123D361002000E00120002384F89D
:102EF0003C3038BD0220FCE710B4846824F47F4CD9
:102F000042EA03220A4342EA0C0282605DF8044B63
:102F1000704790F83C30012B78D010B5044601235F
:102F200080F83C30022380F83D300268936823F437
:102F30007F4323F0770393600B68602B4CD029D834
:102F4000402B54D00CD9502B22D1CA684968006854
:102F5000FFF73AFD50212068FFF75DFD002005E0F6
:102F6000202B0DD009D9302B0AD00120012384F861
:102F70003D30002384F83C3010BD0BB1102B05D13F
:102F800019462068FFF747FD0020EFE70120EDE735
:102F90000120EBE7B3F5805F34D0B3F5005F0CD1CF
:102FA000CB684A6889680068FFF7A6FF22689368C3
:102FB00043F4804393600020D8E7702B24D1CB6882
:102FC0004A6889680068FFF797FF2268936843F0B2
:102FD000770393600020C9E7CA6849680068FFF773
:102FE00006FD60212068FFF716FD0020BEE7CA68D5
:102FF00049680068FFF7E8FC40212068FFF70BFDF7
:103000000020B3E70020B1E70120AFE702207047BE
:1030100001F01F01012303FA01FC036A23EA0C03F8
:103020000362036A02FA01F10B4303627047000076
:1030300010B504460846002942D194F83E30DBB270
:10304000013B18BF0123002B6ED1002851D1022370
:1030500084F83E30012201462068FFF7D9FF23683B
:10306000334A934203D002F58062934203D15A6CF3
:1030700042F400425A6423682D4A934249D0B3F186
:10308000804F46D0A2F57C42934242D002F5806246
:1030900093423ED002F5806293423AD002F57842E4
:1030A000934236D002F57052934232D0A2F5943258
:1030B00093422ED01A6842F001021A60002032E0DA
:1030C000042908D008290DD094F84130DBB2013B27
:1030D00018BF0123B7E794F83F30DBB2013B18BFBC
:1030E0000123B0E794F84030DBB2013B18BF012365
:1030F000A9E7042805D0082807D0022384F8413026
:10310000A8E7022384F83F30A4E7022384F8403084
:10311000A0E79A6802F00702062A07D01A6842F070
:1031200001021A60002010BD0120FCE70020FAE730
:103130000000014070477047026802F10C0353E839
:10314000003F23F490730C3242E800310029F3D1A0
:10315000026802F1140353E8003F23F00103143224
:1031600042E800310029F3D1036B012B05D0202365
:1031700080F83E30002303637047026802F10C03BD
:1031800053E8003F23F010030C3242E800310029DD
:10319000F3D1ECE790F83D30DBB2212B01D00220D7
:1031A00070478368B3F5805F17D0036A5A1C0262C8
:1031B0001A7803685A60C38C9BB2013B9BB2C384EC
:1031C0004BB90268D36823F08003D3600268D368E8
:1031D00043F04003D360002070470369002BE4D123
:1031E000036A1B880268C3F308035360036A02334F
:1031F0000362E0E738B504460268136923F44053DC
:10320000C1680B4313618368026913434269134326
:10321000C2691A430168CB6823F4164323F00C03F8
:103220001343CB600268536923F4407381690B43F5
:1032300053610368314A934206D002F5806293429B
:1032400002D0FFF7EFFA01E0FFF7FCFAE369B3F50C
:10325000004F29D00021031849411B1841F10001FA
:10326000C90041EA5371DB00181863684FEA830212
:103270004FEA937341F10001FCF7BAFF204DA5FB23
:1032800000325109642303FB11031B013233A5FBF8
:1032900003235B0903F0F00202EB011203F00F03BA
:1032A000216813448B6038BD0023021843EB0301EF
:1032B000121841F10001C90041EA5271D200101800
:1032C00041F10001626892185B41FCF791FF0C4DDF
:1032D000A5FB00325109642303FB1103DB003233E9
:1032E000A5FB03235B095A0002F4F87202EB0112FA
:1032F00003F00703216813448B60D4E700100140FA
:103300001F85EB512DE9F84305460F4616469946B1
:10331000DDF820802C68246837EA04030CBF4FF0E6
:10332000010C4FF0000CB4452DD1B8F1FF3FF1D0A6
:10333000B8F1000F05D0FDF7F9FFA0EB09004045FB
:10334000E8D92A6802F10C0353E8003F23F4D07354
:103350000C3242E800310029F3D12A6802F114034B
:1033600053E8003F23F00103143242E80031002902
:10337000F3D1202385F83D3085F83E30002385F8D1
:103380003C30032000E00020BDE8F88358B310B5BE
:10339000044690F83D300BB3242384F83D30226876
:1033A000D36823F40053D3602046FFF723FF22683D
:1033B000136923F4904313612268536923F02A03AD
:1033C00053612268D36843F40053D3600020206423
:1033D000202384F83D3084F83E3010BD80F83C3026
:1033E000FDF7A8FDD8E7012070472DE9F04182B034
:1033F0001E4690F83D30DBB2202B54D104460D46DA
:103400009046002953D0002A53D090F83C30012B2D
:1034100051D0012380F83C3000230364212380F83D
:103420003D30FDF783FF0746A4F82480A4F82680EA
:10343000A368B3F5805F05D04FF00008002384F83F
:103440003C3012E0236913B14FF00008F6E7A846BC
:103450000025F3E738F8023B2268C3F30803536002
:10346000E28C92B2013A92B2E284E38C9BB273B1E5
:1034700000963B46002280212046FFF743FFE0B93B
:10348000002DE7D015F8012B23685A60E8E7009675
:103490003B46002240212046FFF734FF78B9202325
:1034A00084F83D3000E0022002B0BDE8F081012048
:1034B000FAE70120F8E70220F6E70320F4E703200B
:1034C000F2E72DE9F04182B01E4690F83E30DBB2C3
:1034D000202B5CD104460D46904600295BD0002A83
:1034E0005BD090F83C30012B59D0012380F83C3060
:1034F00000230364222280F83E200363FDF716FFB9
:103500000746A4F82C80A4F82E80A368B3F5805F4A
:1035100005D04FF00008002384F83C3017E0236901
:1035200013B14FF00008F6E7A8460025F3E723683B
:103530005B68C3F3080328F8023B03E023685B6879
:103540002B700135E28D92B2013A92B2E285E38DA1
:103550009BB2BBB100963B46002220212046FFF7DC
:10356000D1FEF0B9002DE2D0A368B3F5805FE5D0BD
:1035700013B92369002BE1D023685B6803F07F0354
:103580002B70DEE7202384F83E30002000E002208C
:1035900002B0BDE8F0810120FAE70120F8E702203F
:1035A000F6E70320F4E7704708B50168CA6822F01F
:1035B0004002CA60202280F83D20FFF7F4FF00207F
:1035C00008BD7047704708B5806B0023C385C3846E
:1035D000FFF7F8FF08BD704790F83E30DBB2222BB2
:1035E00067D18368B3F5805F4DD0826AB3F5805FA1
:1035F00004D0002B54D10369002B51D103685B68C0
:103600001370836A01338362C38D9BB2013B9BB20B
:10361000C385002B4FD100B583B00268D36823F077
:103620002003D3600268D36823F48073D3600268F8
:10363000536923F001035361202380F83E30036B6C
:10364000012B33D100230363026802F10C0353E81A
:10365000003F23F010030C3242E800310029F3D17F
:1036600003681A6812F0100F06D0002201921A683F
:1036700001925B680193019B818DFFF7ACFF0020F5
:1036800003B05DF804FB0269002AAED1826A0368C8
:103690005B68C3F308031380836A02338362B3E772
:1036A00003685B6803F07F031370AAE7FFF789FFE5
:1036B000E5E70220704700207047000030B583B076
:1036C000044602681368D068516913F00F0505D1EC
:1036D00013F0200F02D010F0200F19D12DB111F0EE
:1036E000010119D110F4907F16D1216B01297DD0F1
:1036F00013F0800F03D010F0800F40F0158113F00D
:10370000400F03D010F0400F40F0128103B030BDE5
:103710002046FFF761FFF9E713F0010F06D010F420
:10372000807F03D0226C42F00102226413F0040F68
:1037300004D019B1226C42F00202226413F0020F8D
:1037400004D019B1226C42F00402226413F0080F75
:1037500007D010F0200F00D119B1226C42F00802FE
:103760002264226C002AD1D013F0200F02D010F076
:10377000200F29D123685B6903F04003226C12F00B
:10378000080F00D163B32046FFF7D6FC23685B69BE
:1037900013F0400F20D0226802F1140353E8003FD9
:1037A00023F04003143242E800310029F3D1A36B27
:1037B00073B1614A1A65A06BFEF720FB0028A5D003
:1037C000A06B036D9847A1E72046FFF705FFD1E7FF
:1037D0002046FFF7F7FE99E72046FFF7F3FE95E74F
:1037E0002046FFF7EFFE002323648FE713F0100F4E
:1037F0003FF47EAF10F0100F3FF47AAF0023019337
:103800001368019353680193019B536913F0400FB0
:1038100050D0A26B13685B689BB2002B3FF476AF6D
:10382000A18D99427FF672AFE385D369B3F5807FAE
:1038300037D0226802F10C0353E8003F23F4807371
:103840000C3242E800310029F3D1226802F114035E
:1038500053E8003F23F00103143242E8003100290D
:10386000F3D1226802F1140353E8003F23F0400330
:10387000143242E800310029F3D1202384F83E308D
:1038800000232363226802F10C0353E8003F23F076
:1038900010030C3242E800310029F3D1A06BFEF78F
:1038A00063FAA18DE38D9BB2C91A89B22046FFF756
:1038B00092FE2BE7A18DE38D9BB2C91A89B2E38DED
:1038C0009BB2002B3FF422AF00293FF41FAF2268C8
:1038D00002F10C0353E8003F23F490730C3242E8EA
:1038E00000300028F3D1226802F1140353E8003FAE
:1038F00023F00103143242E800300028F3D12023E2
:1039000084F83E3000232363226802F10C0353E85D
:10391000003F23F010030C3242E800300028F3D1BE
:103920002046FFF758FEF1E62046FFF733FCEDE6B0
:103930002046FFF739FEE9E6C7350008842801D0A4
:10394000033070470020704708B500F097FD002055
:1039500008BD2DE9F04387B004460F464569BDB167
:103960008669AEB1D0F80480D0F80090B0F90800B4
:10397000FFF7E4FF0296019500903B462269494615
:10398000404600F0C7FC0590059807B0BDE8F083FD
:1039900065682668D4F81080B4F90800FFF7CEFFF8
:1039A00005AB019300903B461FFA88F2314628464A
:1039B00000F0EBFC0128E7D00020E6E708B500B9ED
:1039C000012000F0A5FE002008BD00F108034360BF
:1039D0004FF0FF328260C3600361002303607047D1
:1039E00000230361704743684B609A688A605160A6
:1039F00099600861036801330360704730B40D6853
:103A0000B5F1FF3F11D000F108031C465B681A684E
:103A1000AA42FAD963684B6099608C606160086162
:103A200003680133036030BC70470469F2E703693F
:103A3000416882688A60416851605A68824206D053
:103A4000002202611A68013A1A6018687047826899
:103A50005A60F5E782B0002301930D4B1B68B3F168
:103A6000FF3F08D04FF0500383F31188BFF36F8FEF
:103A7000BFF34F8FFEE74FF0500383F31188BFF37E
:103A80006F8FBFF34F8F019B002BFCD002B07047AC
:103A90000C00002008480068006880F308884FF098
:103AA000000080F3148862B661B6BFF34F8FBFF396
:103AB0006F8F00DF00BF000008ED00E0DFF80C00B2
:103AC000016841F4700101607047000088ED00E07A
:103AD0004FF0807340F8043C21F0010140F8081CCD
:103AE000054B40F80C3C40F8202C6FF0020340F8E6
:103AF000243C4438704700BF553A000800000000DD
:103B0000074B19680868B0E8F04F80F30988BFF3E5
:103B10006F8F4FF0000080F311887047AFF3008083
:103B2000904B00204FF0500383F31188BFF36F8F49
:103B3000BFF34F8F0B4A136801331360012B00D082
:103B400070474FF0E023D3F8043D13F0FF0FF7D098
:103B50004FF0500383F31188BFF36F8FBFF34F8F84
:103B6000FEE700BF0C000020094B1B6843B94FF073
:103B7000500383F31188BFF36F8FBFF34F8FFEE7BE
:103B8000013B034A13600BB983F31188704700BFF0
:103B90000C000020000000000000000000000000F9
:103BA000EFF30980BFF36F8F154B1A681EF0100FEB
:103BB00008BF20ED108A20E9F04F10602DE90900C0
:103BC0004FF0500080F31188BFF34F8FBFF36F8F1A
:103BD00000F0C4FD4FF0000080F3118809BC1968A3
:103BE0000868B0E8F04F1EF0100F08BFB0EC108A64
:103BF00080F30988BFF36F8F704700BFAFF3008079
:103C0000904B002008B54FF0500383F31188BFF3A9
:103C10006F8FBFF34F8F00F073FC28B14FF0E0239C
:103C20004FF08052C3F8042D002383F3118808BDA0
:103C30004FF0E022002313619361054B1B68054997
:103C4000A1FB03139B09013B5361072313617047D9
:103C500000000020D34D62104FF0E023D3F8002D78
:103C60003D4B9A421CD04FF0E023D3F8002D3B4B44
:103C70009A421ED030B583B0394B1A78D2B2019235
:103C8000FF221A701B78DBB28DF803309DF80330E9
:103C900003F05003334A1370334B07221A601BE0C2
:103CA0004FF0500383F31188BFF36F8FBFF34F8F33
:103CB000FEE74FF0500383F31188BFF36F8FBFF31C
:103CC0004F8FFEE7284A1368013B13609DF80330CD
:103CD0005B00DBB28DF803309DF8033013F0800FEA
:103CE000F0D1214B1B68032B08D04FF0500383F316
:103CF0001188BFF36F8FBFF34F8FFEE71B021A4A85
:103D0000136003F4E0631360019BDBB2144A137089
:103D10004FF0E024D4F8203D43F47003C4F8203D74
:103D2000D4F8203D43F07043C4F8203DFFF780FFF6
:103D300000250E4B1D60FFF7C1FED4F8343F43F061
:103D40004043C4F8343FFFF7A5FE00F007FDFFF73E
:103D500081FE284603B030BD71C20F4170C20F41D1
:103D600000E400E0680F00206C0F00200C00002031
:103D7000124A12F0070F1ED0D11D21F00701C1F524
:103D8000705313440A460E480260002141601344F8
:103D9000083B23F007030B48036059601960991A28
:103DA00051601360084B1960084B1960084B4FF0C5
:103DB00000421A6070474FF47053E4E7740F00201C
:103DC000884B0020700F00207C4B0020784B002097
:103DD000744B0020164B1A461B688342FBD3516874
:103DE00002EB010C844509D0416800EB010C6345EE
:103DF00009D00360904219D01060704740680144B8
:103E000051601046F0E710B40A4C2468A3420BD06E
:103E10005B681944416013681B680360904200D0DE
:103E200010605DF8044B70470460F7E7704700BF0F
:103E3000884B0020700F002070B5054600F058FB3D
:103E4000364B1B68A3B1364B1B681D424ED135B1B2
:103E5000083515F0070F02D025F007050835002DAD
:103E600046D0304B1B68AB4251D32F4A146804E054
:103E7000FFF77EFFE7E722461C466368AB4202D2AB
:103E80002368002BF7D1254B1B68A34241D016684D
:103E900008362368136063685B1B102B10D9601908
:103EA00010F0070F08D04FF0500383F31188BFF3D1
:103EB0006F8FBFF34F8FFEE743606560FFF78AFFA8
:103EC000626818490B689B1A0B60184909688B4295
:103ED00001D216490B60124B1B6813436360002329
:103EE0002360134A13680133136002E0002600E0E8
:103EF000002600F091FB16F0070F0CD04FF0500396
:103F000083F31188BFF36F8FBFF34F8FFEE7002657
:103F1000EFE70026EDE7304670BD00BF700F0020D0
:103F2000744B0020784B0020884B00207C4B0020F5
:103F3000804B0020002834D038B50446A0F1080595
:103F400050F8043C174A1268134208D14FF050034E
:103F500083F31188BFF36F8FBFF34F8FFEE750F8E5
:103F6000081C41B14FF0500383F31188BFF36F8FEA
:103F7000BFF34F8FFEE723EA020340F8043C00F052
:103F8000B7FA54F8041C084A13680B441360284617
:103F9000FFF720FF054A13680133136000F03CFB74
:103FA00038BD7047744B0020784B0020844B0020B4
:103FB00028B141690C4A91420AD0002070474FF065
:103FC000500383F31188BFF36F8FBFF34F8FFEE76A
:103FD000836A064A934202D01BB10020704700203A
:103FE00070470120704700BF8C4C0020744C0020AB
:103FF000084B1B681B6823B9074B4FF0FF321A6050
:104000007047044B1B68DB68DB685A68024B1A6018
:10401000704700BF944B0020684C00202DE9F0470A
:1040200007469846089DDDF824900A9C266B02F10D
:104030008042013A06EB820626F0070600293AD0B4
:104040008E464FF0000CBCF10F0F0BD81EF80C2061
:1040500004EB0C0383F834201EF80C3013B10CF180
:10406000010CF0E7002384F84330062D00D9062523
:10407000E56265644FF0000AC4F848A0201DFFF710
:10408000AFFC04F11800FFF7ABFC2461C5F1070594
:10409000A5616462C4F84CA084F850A04246394639
:1040A0003046FFF715FD2060B9F1000F01D0C9F8C7
:1040B0000040BDE8F087002384F83430D5E70000E5
:1040C00038B5002407E004EB840293000E4818443E
:1040D000FFF77BFC0134062CF5D90C4D2846FFF781
:1040E00074FC0B4C2046FFF770FC0A48FFF76DFC90
:1040F0000948FFF76AFC0948FFF767FC084B1D6099
:10410000084B1C6038BD00BF9C4B00203C4C00207D
:10411000504C0020744C0020A04C00208C4C0020FF
:10412000944B0020984B002010B50446FFF7FAFC92
:10413000214A136801331360204B1B685BB1204B8D
:104140001B686BB91D4B1B68DA6AE36A9A4207D891
:104150001A4B1C6004E0194B1C601368012B28D01B
:10416000184A136801331360E06A01238340164A3A
:1041700011680B43136000EB8000211D134B03EB10
:104180008000FFF730FCFFF7EFFC0D4B1B687BB1A5
:104190000A4B1B68DA6AE36A9A4209D24FF0E023BD
:1041A0004FF08052C3F8042DBFF34F8FBFF36F8FD2
:1041B00010BDFFF785FFD3E7284C0020904B00206F
:1041C000884C0020344C0020384C00209C4B0020B0
:1041D00010B5044690F8513063B1012B11D0022B79
:1041E0000ED04FF0500383F31188BFF36F8FBFF3EE
:1041F0004F8FFEE7006BFFF79DFE2046FFF79AFE0C
:1042000010BDFFF797FEFBE70F4B1B68D3B110B54E
:10421000FFF788FC0D4BDB68DC68201DFFF707FC0F
:104220000B4A1368013B1360074A1368013B136094
:10423000FFF79AFC2046FFF7CBFF034B1B68002BD0
:10424000E6D110BD704700BF2C4C0020A04C0020D0
:10425000284C002008B5FFF7D7FF074B1B68012B40
:10426000F9D94FF0E0234FF08052C3F8042DBFF38B
:104270004F8FBFF36F8FEEE79C4B002070B5044665
:104280000D461D4B1E681D4B18680430FFF7CFFB11
:1042900050B91A4B1B68DA6A012303FA02F2184973
:1042A0000B6823EA02030B60B4F1FF3F0DD03444E6
:1042B000124B1B685C60A64210D9124B18680F4B5A
:1042C00019680431FFF79AFB70BD002DEFD00B4B3E
:1042D000196804310C48FFF786FBF5E70B4B1868AB
:1042E000064B19680431FFF789FB094B1B68A34291
:1042F000EAD9074B1C60E7E7B44C0020904B002044
:10430000384C0020984B00208C4C0020944B00200F
:10431000684C002030B587B00B9C7CB10C9DB5B1CA
:1043200054250495049D542D1AD04FF0500383F367
:104330001188BFF36F8FBFF34F8FFEE74FF050032D
:1043400083F31188BFF36F8FBFF34F8FFEE74FF0FA
:10435000500383F31188BFF36F8FBFF34F8FFEE7D6
:10436000049D0C9D2C63022485F851400024039485
:10437000029505AC01940A9C0094FFF74FFE0C983F
:10438000FFF7D2FE059807B030BD2DE9F04385B0A8
:104390000746884614461E469000FFF74DFD00B3C1
:1043A00081465420FFF748FD0546B0B1C0F8309073
:1043B000E5B1002385F85130039302950D9B0193DD
:1043C0000C9B00933346224641463846FFF726FEB3
:1043D0002846FFF7A9FE012005E04846FFF7AAFDA1
:1043E000E6E74FF0FF3005B0BDE8F0834FF0FF3057
:1043F000F9E7000038B568B104461D4B1B688342DD
:1044000007D0FFF78FFB2046FFF7D2FD58B9FFF723
:10441000ABFB38BD4FF0500383F31188BFF36F8FB0
:10442000BFF34F8FFEE7251D2846FFF700FBE06A2C
:10443000012383400F4A11680B43136000EB800097
:1044400029460D4B03EB8000FFF7CDFAE26A084BDB
:104450001B68DB6A9A42DAD34FF0E0234FF08052B8
:10446000C3F8042DBFF34F8FBFF36F8FCFE700BFAB
:10447000904B0020384C00209C4B002010B588B099
:1044800000240594069407AA06A905A8FCF7BCF920
:10449000059B0293069B019300942346079A0E49BD
:1044A0000E48FFF737FF0E4B186090B14FF05003E6
:1044B00083F31188BFF36F8FBFF34F8F094B4FF01A
:1044C000FF321A60084B01221A60084B1C60FFF78C
:1044D000C3FB08B010BD00BFF45F000855420008E0
:1044E000644C0020684C0020884C0020B44C002014
:1044F000024A136801331360704700BF304C00203C
:10450000F8B53A4B1B68002B69D1394B1D68013552
:104510001D60C5B9374B1B681B6843B14FF0500392
:1045200083F31188BFF36F8FBFF34F8FFEE7314ADC
:104530001168314B186810601960304A13680133F4
:104540001360FFF755FD2E4B1B68AB423DD900278A
:104550002C4B1B68DB6A03EB83039A002A4B9B58A6
:10456000012B00D90127294B1B68002B3CD00127C8
:104570003AE001271F4B1B681B6843B31D4B1B68A8
:10458000DB68DC6863689D4226D3261D3046FFF752
:104590004EFAA36A1BB104F11800FFF748FAE36A68
:1045A00001229A401A49086802430A6003EB830318
:1045B0009A00314614481044FFF715FAE26A114B8D
:1045C0001B68DB6A9A42D4D2D4E70027D2E70C4BAF
:1045D0004FF0FF321A60BBE7094A1360B8E70D4A93
:1045E00013680133136000273846F8BD304C0020B3
:1045F000B44C0020944B0020984B00206C4C0020C1
:10460000684C0020904B00209C4B0020B84C0020B0
:10461000384C0020704C002038B5354B1B6843B92E
:104620004FF0500383F31188BFF36F8FBFF34F8FA9
:10463000FEE7FFF777FA2E4B1A68013A1A601B68FB
:10464000002B4FD12B4B1B680BB900244BE00024EF
:10465000294B1B681BB3284BDB68DC6804F118008E
:10466000FFF7E5F9251D2846FFF7E1F9E06A012388
:104670008340224A11680B43136000EB80002946F7
:104680001F4B03EB8000FFF7AEF9E26A1D4B1B687E
:10469000DB6A9A42DCD31C4B01221A60D8E70CB1CA
:1046A000FFF7A6FC194B1C6884B9174B1C68D4B1E2
:1046B0004FF0E0234FF08052C3F8042DBFF34F8F2B
:1046C000BFF36F8F01240EE0013C07D0FFF718FF06
:1046D0000028F9D00C4B01221A60F5E70B4B0022A1
:1046E0001A60E2E70024FFF73FFA204638BD00BF1A
:1046F000304C0020284C0020744C0020384C002006
:104700009C4B0020904B0020B84C0020704C0020A7
:1047100010B5A8B10446104B1B6843B14FF05003CD
:1047200083F31188BFF36F8FBFF34F8FFEE7FFF75F
:10473000DFFE00212046FFF7A1FDFFF76DFF48B91E
:104740004FF0E0234FF08052C3F8042DBFF34F8F9A
:10475000BFF36F8F10BD00BF304C0020204B1B6893
:104760001BB1204B01221A6070471E4B00221A60B9
:104770001D4B1B68B3FA83F3DBB2C3F11F0303EBDA
:1047800083018A0019498A5842B94FF0500383F3D4
:104790001188BFF36F8FBFF34F8FFEE7134903EB11
:1047A000830082000A4450684068506003EB830C29
:1047B0004FEA8C0208321144884209D003EB83038C
:1047C0009A000A4B13445B68DA68094B1A60704719
:1047D000406862469100054A0A445060EEE700BF17
:1047E000304C0020B84C0020384C00209C4B00205E
:1047F000904B002008B54FF480410248FDF704FDBE
:1048000008BD00BF0014024008B54FF40061024823
:10481000FDF7FAFC08BD00BF0010024010B5344C93
:1048200001224FF480712046FDF7E8FC00220221AE
:104830002046FDF7E3FC6420FFF7C0F801220221C7
:104840002046FDF7DBFC002204212046FDF7D6FCC4
:104850006420FFF7B3F8012204212046FDF7CEFCC7
:10486000002208212046FDF7C9FC6420FFF7A6F8C6
:10487000012208212046FDF7C1FC0022102120461C
:10488000FDF7BCFC6420FFF799F8012210212046B7
:10489000FDF7B4FC002220212046FDF7AFFC642088
:1048A000FFF78CF8012220212046FDF7A7FC00220B
:1048B00040212046FDF7A2FC6420FFF77FF801228B
:1048C00040212046FDF79AFC002280212046FDF77A
:1048D00095FC6420FFF772F8012280212046FDF745
:1048E0008DFC00224FF480712046FDF787FC10BD3F
:1048F0000018024008B500F00FF800F093F80448E3
:1049000000F014FA00210348FEF792FB08BD00BF37
:10491000540E00206C0B002000B58BB000230593D3
:1049200006930122079244F22001009101934FF671
:10493000FF710291039104930E2309930892694633
:104940003748FCF79FFD002855D10123059300222D
:104950000692079344F24001009101924FF6FF71D5
:104960000291039104920E220992089369462C4801
:10497000FCF788FD002841D102230593002306930C
:104980000122079244F26001009101934FF6FF71FA
:104990000291039104930E230993089269462048DB
:1049A000FCF770FD68BB03230593002306930122E7
:1049B00007924FF48141009101934FF6FF710291EC
:1049C000039104930E230993089269461448FCF757
:1049D00059FDC8B91248FCF7F1FDC0B902211048D1
:1049E000FCF756FFB0B901210D48FCF751FFA0B903
:1049F0000BB05DF804FBFCF71DF8A6E7FCF71AF80E
:104A0000BAE7FCF717F8CEE7FCF714F8E2E7FCF793
:104A100011F8E3E7FCF70EF8E5E7FCF70BF8E7E73A
:104A20007408002000B58BB00E2105910023069379
:104A30000122079200930193029303930493099137
:104A4000089269461048FCF71DFD80B90E48FCF736
:104A5000B5FD78B902210C48FCF71AFF68B90121AD
:104A60000948FCF715FF58B90BB05DF804FBFBF7DC
:104A7000E1FFEBE7FBF7DEFFECE7FBF7DBFFEEE741
:104A8000FBF7D8FFF0E700BF9C08002010B58AB004
:104A90000446BDF930C0BDF93400049100210691EF
:104AA00007910821089142FA01F18DF808108DF85C
:104AB00009201A128DF80A208DF80B309DF931303B
:104AC0008DF80C308DF80DC09DF935308DF80E3015
:104AD0008DF80F002046FCF71DFE0028FAD001AB30
:104AE00002AA04A92046FCF797FD08B90AB010BD38
:104AF000FBF7A0FFFAE710B5836943B90C784A7851
:104B000042EA0422428042820133836110BDB0F840
:104B100002C0A0F814C00C784A7842EA042242800D
:104B20008C7891F803E04EEA042EA0F804E00C79AA
:104B300091F805E04EEA042EA0F806E089790172AA
:104B4000A2EB0C0CBCF5805F0BDBB0F91010013947
:104B50000182B0F9101002EB4132418A521AC26050
:104B6000D2E71CF5805FF4DCB0F91010013101824E
:104B7000EFE70000134B984200D0704700B58BB0B0
:104B800001AB03AA0021FCF7DEFD50B9039BA3F2A1
:104B90000122072A08D90B4B1A68536943F0020314
:104BA00053610BB05DF804FB013BD8B2064B1870A3
:104BB000C0EBC00001A9054B03EB8000FFF79BFF92
:104BC000E9E700BF9C080020BC4C0020C04C00203E
:104BD000C0ED0E1A80ED0F2A80ED050AC0ED060A21
:104BE00080ED071A0023036043608360C3600361A4
:104BF00003634363036243628362C362704780ED71
:104C0000000AC0ED010A70EE600AC0ED020A90EDE4
:104C10000F7AB5EE407AF1EE10FA5CD0FDEEE07A54
:104C200017EE903A002BB8BF5B4207EE903AF8EED1
:104C3000E77AB4EEE77AF1EE10FA2DD5002303639C
:104C4000D0ED037A70EEE77AC0ED0D7A90ED057A3B
:104C500020EE877A80ED087AD0ED066A90ED0C6A36
:104C600066EE866AC0ED096A90ED076A67EE867A9D
:104C7000C0ED0A7A37EE267A77EE877AC0ED0B7AA6
:104C8000C0ED030AF4EEC17AF1EE10FA43DD80EDD7
:104C90000B1A90ED0B0A7047D0ED0C7A70EEA77AE4
:104CA000C0ED0C7A90ED0E7AB5EE407AF1EE10FA86
:104CB000C6D0F1EE476AF4EEE67AF1EE10FA02D5CC
:104CC000C0ED0C6ABCE7F4EEC77AF1EE10FAB7DD7E
:104CD00080ED0C7AB4E7D0ED0C7A70EEA77AC0EDD7
:104CE0000C7A90ED0E7AB5EE407AF1EE10FAA7D07C
:104CF000F1EE476AF4EEE67AF1EE10FA01D5C0ED76
:104D00000C6AD0ED0C7AB4EEE77AF1EE10FA97D592
:104D100080ED0C7A94E7B1EE411AF4EEC17AF1EE2F
:104D200010FAB6D580ED0B1AB3E7000008B5054BB5
:104D30001860054B1868002302221946806800F0AD
:104D4000D5F808BDA04D00201000002010B5013896
:104D500001280AD814464FF0FF3392B20748006882
:104D6000FEF743FB40B9204610BD00F043F809238D
:104D700003604FF0FF30F7E70520F5E7A04D002076
:104D8000022801D80020704708B500F033F8092345
:104D900003604FF0FF3008BD08B500F02BF8092381
:104DA00003604FF0FF3008BD08B548B94FF0FF333E
:104DB000012208480068FEF784FB40B9012008BDC5
:104DC00000F018F8092303604FF0FF30F7E70520E3
:104DD000F5E700BFA04D002008B5022804D84FF425
:104DE00000534B60002008BD00F004F80923036065
:104DF000F8E70000014B1868704700BF1000002062
:104E000070B50D4E0D4D761BB61006D0002455F82A
:104E1000043B01349847A642F9D1094E094D761B4F
:104E200001F0A4F8B61006D0002455F8043B013474
:104E30009847A642F9D170BD0860000808600008D4
:104E40001060000808600008830730B548D0541E81
:104E5000002A3FD0CAB2034601E0013C3AD303F82E
:104E6000012B9D07F9D1032C2DD9CDB245EA05259B
:104E70000F2C45EA054536D9A4F1100222F00F0C9B
:104E800003F1200EE6444FEA121C03F1100242E93E
:104E9000045542E9025510327245F8D10CF1010275
:104EA00014F00C0F03EB021204F00F0C13D0ACF152
:104EB000040323F003030433134442F8045B9342D6
:104EC000FBD10CF003042CB1CAB21C4403F8012B33
:104ED0009C42FBD130BD64461346002CF4D1F9E767
:104EE00003461446BFE71A46A446E0E72DE9F0431F
:104EF000694CD4F8008083B004460E4617461D4620
:104F0000B8F1000F03D0D8F83830002B77D0022F3B
:104F100005D0012F00F2AC80002DC0F2A980636E95
:104F2000DA0752D52146404600F060F9216B41B1C5
:104F300004F14003994202D0404600F083FA002376
:104F40002363B4F90CC000231CF0800FA3616360DD
:104F500064D12CF44A6C2CF0030C022FA4F80CC082
:104F60006AD001AB6A462146404600F09DFBA3890A
:104F70001843A081002D2FD0002E2ED0D8F8383025
:104F8000002B38D0009B2660AB42B4F90C301CBF1C
:104F900043F40063A381012F04BF43F00103A38105
:104FA0009AB213F00803C4E904652CD0D1075DD58B
:104FB0006D42A561656E002315F00105A36027D041
:104FC0000025284603B0BDE8F083A3899B05A9D43A
:104FD000A06D00F065FBA5E7009D284600F094FB5E
:104FE0000646002847D0A38943F08003A381D8F860
:104FF0003830002BC6D1404600F02CF9C2E74046BD
:1050000000F028F983E7A360656E15F00105D7D19C
:10501000930524D5284603B0BDE8F08321694046B6
:1050200000F010FAB4F90CC02CF44A6C2CF0030C0C
:10503000022FA4F80CC094D10025002204F14303F0
:10504000A2600122C4E904322360636E4CF0020CBA
:10505000D807A4F80CC0DDD41CF4007FDAD1A06D11
:1050600000F020FB284603B0BDE8F083A560CBE745
:105070004FF0FF35CEE7DDF80090A94504D0484653
:1050800000F042FB064620B9B4F90CC04FF0FF35E2
:10509000D3E74D46A7E700BF10000020024B13B135
:1050A000024800F005B8704700000000795300087E
:1050B000002301461A46184600F058BEB1F90C20EC
:1050C0002DE9F0410C461107804647D4636842F44D
:1050D0000062002BA2815EDDA56A002D58D000235E
:1050E000D8F80060C8F8003093B212F4805256D15C
:1050F0000123E1694046A847431C67D0A389A56AFC
:105100005F0705D56368C01A236B0BB1E36BC01A48
:10511000E169024600234046A847411C41D1D8F826
:105120000030002B3DD01D2B01D0162B56D1A3896A
:105130002269226023F4006300216160A381216B56
:10514000C8F8006021B304F14003994202D0404600
:1051500000F078F900202063BDE8F0812669BEB137
:1051600093B2256826609A070CBF63690023AD1BC4
:10517000A3600BE02B463246E169676A4046B847B8
:10518000B0F1000CA5EB0C05664417DD002DF1DC39
:105190000020BDE8F081E36B002B9DDCF8E7206D7B
:1051A000AEE7B4F90C302269226023F40063A381D6
:1051B0000022DB046260C2D52065C0E7A38943F00A
:1051C00040034FF0FF30A381BDE8F081D8F80030F4
:1051D000002B93D01D2B06D0162B04D0A38943F0AF
:1051E0004003A381D5E7C8F80060D1E738B50C4685
:1051F000054608B1836BA3B1B4F90C00B8B1636E76
:10520000DB0701D4810515D528462146FFF756FF57
:10521000636EDA07054602D4A3899B050ED528469E
:1052200038BD00F017F8B4F90C000028E7D10546A6
:10523000284638BDA06D00F033FAE5E7A06D00F018
:1052400031FA284638BD00BF014900F001BA00BF5D
:105250001D5E00082DE9F0478246394800F020FA2B
:10526000DAF83840002C66D1DAF80450354ACAF82A
:105270003C200323CAE9B843DFF8DC90DFF8DC8088
:10528000314F324E04230AF53B72CAF8E822214618
:10529000C5E90243C5E90044C5E904446C66082237
:1052A000AC6105F15C00FFF7CFFDC5E90759C5E921
:1052B0000987EE6205F1580000F0EEF9DAF80850BF
:1052C000234BEB602146C5E90044C5E904446C6604
:1052D000AC60AC61082205F15C00FFF7B5FDC5E9E3
:1052E0000759C5E90987EE6205F1580000F0D4F9C5
:1052F000DAF80C50174BEB602146C5E90044C5E9CC
:1053000004446C66AC60AC61082205F15C00FFF7F8
:105310009BFD05F15800C5E90759C5E90A76C5F8AE
:10532000248000F0B9F90123CAF838300448BDE8F8
:10533000F04700F0B7B9BDE8F047014800F0B2B956
:10534000B04D002049520008195D0008395D000881
:105350000900010012000200B55C0008D95C0008D9
:10536000014800F09DB900BFAC4D0020014800F09D
:1053700099B900BFAC4D002038B5084B084D5B1BF8
:105380009C1007D0043B1D44013C55F80439984754
:10539000002CF9D1BDE8384000F0EEBD14600008E3
:1053A00010600008F8B5244F0C46064600F064FC77
:1053B000BA685568C4F57E630F3325F003052B44A6
:1053C00023F47F6323F00F03A3F58054B4F5805FCB
:1053D00007DB0021304600F05BFCBB682B449842A1
:1053E00004D0304600F04EFC0020F8BD614230464B
:1053F00000F04EFC01300DD0104ABB682D1B45F06B
:1054000001055D60136830461B1B136000F03AFC19
:105410000120F8BD0021304600F03AFCBA68831A3A
:105420000F2BDEDD43F001035360054B03491B687E
:10543000C01A0860D5E700BF44040020B44D002026
:105440004C080020002961D0F8B50C46064600F053
:1054500013FC54F8042C7B4FA4F1080522F0010141
:1054600005EB010CB868DCF80430604523F0030359
:1054700000F08B80D207CCF8043032D454F8082CDA
:10548000AD1A1144AA6807F1080082426AD00CEBF9
:105490000304D4F804E0EC68D4601EF0010FA260AD
:1054A00000F0978041F001036B60CCF80010B1F57B
:1054B000007F35D27A68CB08480901210133814049
:1054C0001143796007EBC30257F83310083AC5E976
:1054D000021247F83350CD603046BDE8F84000F086
:1054E000D1BB0CEB03025268D00710D4194407F16A
:1054F0000800DCF80830834273D0DCF80C20DA6056
:10550000936041F001036B606950D0E7704741F050
:105510000103B1F5007F44F8043CCCF80010C9D376
:10552000B1F5206F4FEA512348D28B0903F13900BE
:1055300003F13802C300F818FB580838984259D0D4
:105540005A6822F003028A4202D99B689842F7D136
:10555000D868C5E902308560DD603046BDE8F840B6
:1055600000F090BB0CEB03025268D20763D40B44EB
:10557000DCE90212CA60916043F001026A603046C1
:10558000EB50BDE8F84000F07DBB0B44D10707D4D9
:1055900054F8082CAD1A1344D5E90212CA60916080
:1055A00043F001026A60284ABD6012689A4293D8AB
:1055B000264B30461968FFF7F5FE8DE7142B0AD904
:1055C000542B1FD80B0B03F16F0003F16E02C300C5
:1055D000B1E719448DE703F15C0003F15B02C300FE
:1055E000A9E741F00103C7E90455C5E902006B6072
:1055F000695071E779689210012404FA02F20A43B3
:105600007A60A6E7B3F5AA7F06D8CB0B03F1780042
:1056100003F17702C3008EE740F25452934206D85A
:105620008B0C03F17D0003F17C02C30083E74FF490
:105630007E737E227FE741F001036B60CCF800109F
:105640004AE700BF4404002050080020E44D002039
:105650002DE9F8430746884600F538764FF00009F3
:10566000D6E90154013D11D4A389012B05F1FF3581
:1056700008D9B4F90E300133214603D03846C0476B
:1056800049EA00096B1C04F16804EDD13668002E6C
:10569000E6D14846BDE8F883704700BF704700BFB9
:1056A000704700BF704700BF70B50C46B1F90E10CF
:1056B000002996B015461E4614DB6A4600F014FC1D
:1056C00000280FDB019A02F47042A2F50052B2FAF0
:1056D00082F24FF4806352094FF4006032602B6015
:1056E00016B070BDB4F90C10002311F080003360C7
:1056F00004D0402218462A6016B070BD4FF4806373
:105700002B6016B070BD00BF024B0146186800F058
:1057100003B800BF100000202DE9F04F01F10B0687
:10572000162E83B0044624D8102900F2BA8000F067
:10573000A3FA102618220220B54F3A44A2F108011C
:1057400053688B4200F0BA805A68D96822F003028D
:105750001A449D68E9608D60516841F0010120465E
:10576000516003F1080500F08DFA284603B0BDE84A
:10577000F08F36F0070600F19480B14200F291807C
:1057800000F07AFAB6F5FC7FC0F09A81730A00F057
:105790008F80042B00F26F81B30903F1390003F10C
:1057A000380CC3009A4F3B44A3F108055B689D4247
:1057B00006D10CE0002980F22781DB689D4206D0EB
:1057C0005A6822F00302911B0F29F3DD60463D6900
:1057D000DFF850C265457CD06A6822F00302931B53
:1057E0000F2B00F37B81002BC7E904CC80F26C8186
:1057F000B2F5007F80F01A81D308796801334FEA4F
:10580000521E012202FA0EF20A4357F833E0C5F89D
:1058100008E007EBC3010839E9607A6047F83350C4
:10582000CEF80C50831001219940914257D8114273
:1058300006D120F003004900114200F10400FAD023
:1058400007EBC0094D468646D5F80C80454508D182
:105850001DE1002B80F22481D8F80C80454500F032
:105860001681D8F8042022F00302931B0F2BF0DDE1
:105870002046D8E9025408EB060146F00106C8F8B4
:105880000460EC60A56043F00104C7E90411C1E9BC
:1058900002CC4C6048F8023000F0F4F908F1080539
:1058A00002E00C2323600025284603B0BDE8F08FFA
:1058B0004FF4007340204FF03F0C73E7D3689A42D7
:1058C00008BF02307FF440AF3D69DFF858C165453D
:1058D00082D17A688310012199409142A7D9BD688D
:1058E0006B6823F003094E4503D8A9EB06030F2B81
:1058F0007ADCDFF834B1474BDBF800201B6801325B
:10590000334405EB090A00F0338103F580530F336C
:1059100023F47F6828F00F084146204600F0B8F9CC
:10592000411C024600F0F380824500F2EE803A4BC3
:10593000196841441960084600F04E81DBF80010F8
:10594000019301311BBFA2EB0A0A5044CBF800209F
:10595000186012F0070B00F01781CBF108010A4420
:10596000CBF5805190440831A1EB0801C1F30B0A3B
:1059700051462046009200F08BF9421CDDE90023DD
:1059800000F04F81801A00EB0A081968BA6048F0ED
:1059900001005144BD425060196000F02981B9F105
:1059A0000F0F40F227816868A9F10C0C2CF0070C4E
:1059B00000F0010040EA0C0068604FF0050E05EBB6
:1059C0000C00BCF10F0FC0E901EE00F2328150680B
:1059D0001546124B1A688A4238BF1960104B1A6874
:1059E0008A4238BF196094E0AA1943F0010346F0D7
:1059F00001066E602046BA60536000F043F9083536
:105A0000284603B0BDE8F08FD9681A44A1E600BF6C
:105A100044040020E44D0020B44D0020DC4D002063
:105A2000E04D00204C0400204C080020B2F5206F0F
:105A30004FEA522363D3142B00F2B78003F15C01C9
:105A4000C9005B3307EB010E7958AEF1080E8E45A5
:105A500000F091804B6823F00303934202D98968D8
:105A60008E45F7D1D1F80CE07A68C5E9021ECEF870
:105A70000850CD60D6E6142B59D9542B00F29D80E6
:105A8000330B03F16F0003F16E0CC3008AE60EF1D5
:105A9000010E1EF0030F05F108057FF4D5AE51E0AD
:105AA000424445465368D8F80C1043F00103536054
:105AB00055F8083F2046D9608B6000F0E3F8F3E624
:105AC000F00806F1080237E62A442046536843F0FE
:105AD00001035360083500F0D5F8E5E6A919204622
